{
  "_format": "hh-sol-artifact-1",
  "contractName": "gatoXadrezMarket",
  "sourceName": "contracts/MarketXadrez.sol",
  "abi": [
    {
      "inputs": [],
      "stateMutability": "nonpayable",
      "type": "constructor"
    },
    {
      "anonymous": false,
      "inputs": [
        {
          "indexed": true,
          "internalType": "uint256",
          "name": "itemId",
          "type": "uint256"
        },
        {
          "indexed": true,
          "internalType": "address",
          "name": "nftContract",
          "type": "address"
        },
        {
          "indexed": true,
          "internalType": "uint256",
          "name": "tokenId",
          "type": "uint256"
        },
        {
          "indexed": false,
          "internalType": "address",
          "name": "seller",
          "type": "address"
        },
        {
          "indexed": false,
          "internalType": "address",
          "name": "owner",
          "type": "address"
        },
        {
          "indexed": false,
          "internalType": "uint256",
          "name": "price",
          "type": "uint256"
        },
        {
          "indexed": false,
          "internalType": "bool",
          "name": "sold",
          "type": "bool"
        }
      ],
      "name": "MarketItemCreated",
      "type": "event"
    },
    {
      "inputs": [
        {
          "internalType": "address",
          "name": "nftContract",
          "type": "address"
        },
        {
          "internalType": "uint256",
          "name": "tokenId",
          "type": "uint256"
        },
        {
          "internalType": "uint256",
          "name": "price",
          "type": "uint256"
        }
      ],
      "name": "createMarketItem",
      "outputs": [],
      "stateMutability": "payable",
      "type": "function"
    },
    {
      "inputs": [
        {
          "internalType": "address",
          "name": "nftContract",
          "type": "address"
        },
        {
          "internalType": "uint256",
          "name": "itemid",
          "type": "uint256"
        }
      ],
      "name": "createMarketSale",
      "outputs": [],
      "stateMutability": "payable",
      "type": "function"
    },
    {
      "inputs": [],
      "name": "fetchMarketItems",
      "outputs": [
        {
          "components": [
            {
              "internalType": "uint256",
              "name": "itemId",
              "type": "uint256"
            },
            {
              "internalType": "address",
              "name": "nftContract",
              "type": "address"
            },
            {
              "internalType": "uint256",
              "name": "tokenId",
              "type": "uint256"
            },
            {
              "internalType": "address payable",
              "name": "seller",
              "type": "address"
            },
            {
              "internalType": "address payable",
              "name": "owner",
              "type": "address"
            },
            {
              "internalType": "uint256",
              "name": "price",
              "type": "uint256"
            },
            {
              "internalType": "bool",
              "name": "sold",
              "type": "bool"
            }
          ],
          "internalType": "struct gatoXadrezMarket.MarketItem[]",
          "name": "",
          "type": "tuple[]"
        }
      ],
      "stateMutability": "view",
      "type": "function"
    },
    {
      "inputs": [],
      "name": "fetchmyNFTs",
      "outputs": [
        {
          "components": [
            {
              "internalType": "uint256",
              "name": "itemId",
              "type": "uint256"
            },
            {
              "internalType": "address",
              "name": "nftContract",
              "type": "address"
            },
            {
              "internalType": "uint256",
              "name": "tokenId",
              "type": "uint256"
            },
            {
              "internalType": "address payable",
              "name": "seller",
              "type": "address"
            },
            {
              "internalType": "address payable",
              "name": "owner",
              "type": "address"
            },
            {
              "internalType": "uint256",
              "name": "price",
              "type": "uint256"
            },
            {
              "internalType": "bool",
              "name": "sold",
              "type": "bool"
            }
          ],
          "internalType": "struct gatoXadrezMarket.MarketItem[]",
          "name": "",
          "type": "tuple[]"
        }
      ],
      "stateMutability": "view",
      "type": "function"
    },
    {
      "inputs": [],
      "name": "getListingPrice",
      "outputs": [
        {
          "internalType": "uint256",
          "name": "",
          "type": "uint256"
        }
      ],
      "stateMutability": "view",
      "type": "function"
    }
  ],
  "bytecode": "0x60806040526706f05b59d3b2000060045534801561001c57600080fd5b50600160008190555033600360006101000a81548173ffffffffffffffffffffffffffffffffffffffff021916908373ffffffffffffffffffffffffffffffffffffffff16021790555061156b806100756000396000f3fe60806040526004361061004a5760003560e01c80630f08efe01461004f57806312e855851461007a57806358eb2df5146100a5578063b82b289c146100c1578063c23b139e146100ec575b600080fd5b34801561005b57600080fd5b50610064610108565b60405161007191906111da565b60405180910390f35b34801561008657600080fd5b5061008f610434565b60405161009c919061127c565b60405180910390f35b6100bf60048036038101906100ba9190610f16565b61043e565b005b3480156100cd57600080fd5b506100d66107a2565b6040516100e391906111da565b60405180910390f35b61010660048036038101906101019190610eda565b610b52565b005b606060006101166002610e0b565b905060006101246001610e0b565b61012e6002610e0b565b6101389190611337565b90506000808267ffffffffffffffff81111561017d577f4e487b7100000000000000000000000000000000000000000000000000000000600052604160045260246000fd5b6040519080825280602002602001820160405280156101b657816020015b6101a3610e2f565b81526020019060019003908161019b5790505b50905060005b8481101561042957600073ffffffffffffffffffffffffffffffffffffffff16600560006001846101ed91906112e1565b815260200190815260200160002060040160009054906101000a900473ffffffffffffffffffffffffffffffffffffffff1673ffffffffffffffffffffffffffffffffffffffff1614156104165760006005600060018461024e91906112e1565b81526020019081526020016000206000015490506000600560008381526020019081526020016000209050806040518060e0016040529081600082015481526020016001820160009054906101000a900473ffffffffffffffffffffffffffffffffffffffff1673ffffffffffffffffffffffffffffffffffffffff1673ffffffffffffffffffffffffffffffffffffffff168152602001600282015481526020016003820160009054906101000a900473ffffffffffffffffffffffffffffffffffffffff1673ffffffffffffffffffffffffffffffffffffffff1673ffffffffffffffffffffffffffffffffffffffff1681526020016004820160009054906101000a900473ffffffffffffffffffffffffffffffffffffffff1673ffffffffffffffffffffffffffffffffffffffff1673ffffffffffffffffffffffffffffffffffffffff168152602001600582015481526020016006820160009054906101000a900460ff1615151515815250508486815181106103f9577f4e487b7100000000000000000000000000000000000000000000000000000000600052603260045260246000fd5b602002602001018190525060018561041191906112e1565b945050505b8080610421906113c5565b9150506101bc565b508094505050505090565b6000600454905090565b60026000541415610484576040517f08c379a000000000000000000000000000000000000000000000000000000000815260040161047b9061123c565b60405180910390fd5b6002600081905550600081116104cf576040517f08c379a00000000000000000000000000000000000000000000000000000000081526004016104c69061125c565b60405180910390fd5b6004543414610513576040517f08c379a000000000000000000000000000000000000000000000000000000000815260040161050a906111fc565b60405180910390fd5b61051d6002610e19565b60006105296002610e0b565b90506040518060e001604052808281526020018573ffffffffffffffffffffffffffffffffffffffff1681526020018481526020013373ffffffffffffffffffffffffffffffffffffffff168152602001600073ffffffffffffffffffffffffffffffffffffffff16815260200183815260200160001515815250600560008381526020019081526020016000206000820151816000015560208201518160010160006101000a81548173ffffffffffffffffffffffffffffffffffffffff021916908373ffffffffffffffffffffffffffffffffffffffff1602179055506040820151816002015560608201518160030160006101000a81548173ffffffffffffffffffffffffffffffffffffffff021916908373ffffffffffffffffffffffffffffffffffffffff16021790555060808201518160040160006101000a81548173ffffffffffffffffffffffffffffffffffffffff021916908373ffffffffffffffffffffffffffffffffffffffff16021790555060a0820151816005015560c08201518160060160006101000a81548160ff0219169083151502179055509050508373ffffffffffffffffffffffffffffffffffffffff166323b872dd3330866040518463ffffffff1660e01b815260040161070a9392919061115e565b600060405180830381600087803b15801561072457600080fd5b505af1158015610738573d6000803e3d6000fd5b50505050828473ffffffffffffffffffffffffffffffffffffffff16827f045dfa01dcba2b36aba1d3dc4a874f4b0c5d2fbeb8d2c4b34a7d88c8d8f929d133600087600060405161078c9493929190611195565b60405180910390a4506001600081905550505050565b606060006107b06002610e0b565b905060008060005b83811015610859573373ffffffffffffffffffffffffffffffffffffffff16600560006001846107e891906112e1565b815260200190815260200160002060040160009054906101000a900473ffffffffffffffffffffffffffffffffffffffff1673ffffffffffffffffffffffffffffffffffffffff1614156108465760018361084391906112e1565b92505b8080610851906113c5565b9150506107b8565b5060008267ffffffffffffffff81111561089c577f4e487b7100000000000000000000000000000000000000000000000000000000600052604160045260246000fd5b6040519080825280602002602001820160405280156108d557816020015b6108c2610e2f565b8152602001906001900390816108ba5790505b50905060005b84811015610b47573373ffffffffffffffffffffffffffffffffffffffff166005600060018461090b91906112e1565b815260200190815260200160002060040160009054906101000a900473ffffffffffffffffffffffffffffffffffffffff1673ffffffffffffffffffffffffffffffffffffffff161415610b345760006005600060018461096c91906112e1565b81526020019081526020016000206000015490506000600560008381526020019081526020016000209050806040518060e0016040529081600082015481526020016001820160009054906101000a900473ffffffffffffffffffffffffffffffffffffffff1673ffffffffffffffffffffffffffffffffffffffff1673ffffffffffffffffffffffffffffffffffffffff168152602001600282015481526020016003820160009054906101000a900473ffffffffffffffffffffffffffffffffffffffff1673ffffffffffffffffffffffffffffffffffffffff1673ffffffffffffffffffffffffffffffffffffffff1681526020016004820160009054906101000a900473ffffffffffffffffffffffffffffffffffffffff1673ffffffffffffffffffffffffffffffffffffffff1673ffffffffffffffffffffffffffffffffffffffff168152602001600582015481526020016006820160009054906101000a900460ff161515151581525050848681518110610b17577f4e487b7100000000000000000000000000000000000000000000000000000000600052603260045260246000fd5b6020026020010181905250600185610b2f91906112e1565b945050505b8080610b3f906113c5565b9150506108db565b508094505050505090565b60026000541415610b98576040517f08c379a0000000000000000000000000000000000000000000000000000000008152600401610b8f9061123c565b60405180910390fd5b6002600081905550600060056000838152602001908152602001600020600501549050600060056000848152602001908152602001600020600201549050813414610c18576040517f08c379a0000000000000000000000000000000000000000000000000000000008152600401610c0f9061121c565b60405180910390fd5b6005600084815260200190815260200160002060030160009054906101000a900473ffffffffffffffffffffffffffffffffffffffff1673ffffffffffffffffffffffffffffffffffffffff166108fc349081150290604051600060405180830381858888f19350505050158015610c94573d6000803e3d6000fd5b508373ffffffffffffffffffffffffffffffffffffffff166323b872dd3033846040518463ffffffff1660e01b8152600401610cd29392919061115e565b600060405180830381600087803b158015610cec57600080fd5b505af1158015610d00573d6000803e3d6000fd5b50505050336005600085815260200190815260200160002060040160006101000a81548173ffffffffffffffffffffffffffffffffffffffff021916908373ffffffffffffffffffffffffffffffffffffffff16021790555060016005600085815260200190815260200160002060060160006101000a81548160ff021916908315150217905550610d926001610e19565b600360009054906101000a900473ffffffffffffffffffffffffffffffffffffffff1673ffffffffffffffffffffffffffffffffffffffff166108fc6004549081150290604051600060405180830381858888f19350505050158015610dfc573d6000803e3d6000fd5b50505060016000819055505050565b600081600001549050919050565b6001816000016000828254019250508190555050565b6040518060e0016040528060008152602001600073ffffffffffffffffffffffffffffffffffffffff16815260200160008152602001600073ffffffffffffffffffffffffffffffffffffffff168152602001600073ffffffffffffffffffffffffffffffffffffffff168152602001600081526020016000151581525090565b600081359050610ebf81611507565b92915050565b600081359050610ed48161151e565b92915050565b60008060408385031215610eed57600080fd5b6000610efb85828601610eb0565b9250506020610f0c85828601610ec5565b9150509250929050565b600080600060608486031215610f2b57600080fd5b6000610f3986828701610eb0565b9350506020610f4a86828701610ec5565b9250506040610f5b86828701610ec5565b9150509250925092565b6000610f7183836110b2565b60e08301905092915050565b610f868161137d565b82525050565b610f958161136b565b82525050565b610fa48161136b565b82525050565b6000610fb5826112a7565b610fbf81856112bf565b9350610fca83611297565b8060005b83811015610ffb578151610fe28882610f65565b9750610fed836112b2565b925050600181019050610fce565b5085935050505092915050565b6110118161138f565b82525050565b6110208161138f565b82525050565b60006110336013836112d0565b915061103e8261143d565b602082019050919050565b6000611056602c836112d0565b915061106182611466565b604082019050919050565b6000611079601f836112d0565b9150611084826114b5565b602082019050919050565b600061109c6014836112d0565b91506110a7826114de565b602082019050919050565b60e0820160008201516110c86000850182611140565b5060208201516110db6020850182610f8c565b5060408201516110ee6040850182611140565b5060608201516111016060850182610f7d565b5060808201516111146080850182610f7d565b5060a082015161112760a0850182611140565b5060c082015161113a60c0850182611008565b50505050565b611149816113bb565b82525050565b611158816113bb565b82525050565b60006060820190506111736000830186610f9b565b6111806020830185610f9b565b61118d604083018461114f565b949350505050565b60006080820190506111aa6000830187610f9b565b6111b76020830186610f9b565b6111c4604083018561114f565b6111d16060830184611017565b95945050505050565b600060208201905081810360008301526111f48184610faa565b905092915050565b6000602082019050818103600083015261121581611026565b9050919050565b6000602082019050818103600083015261123581611049565b9050919050565b600060208201905081810360008301526112558161106c565b9050919050565b600060208201905081810360008301526112758161108f565b9050919050565b6000602082019050611291600083018461114f565b92915050565b6000819050602082019050919050565b600081519050919050565b6000602082019050919050565b600082825260208201905092915050565b600082825260208201905092915050565b60006112ec826113bb565b91506112f7836113bb565b9250827fffffffffffffffffffffffffffffffffffffffffffffffffffffffffffffffff0382111561132c5761132b61140e565b5b828201905092915050565b6000611342826113bb565b915061134d836113bb565b9250828210156113605761135f61140e565b5b828203905092915050565b60006113768261139b565b9050919050565b60006113888261139b565b9050919050565b60008115159050919050565b600073ffffffffffffffffffffffffffffffffffffffff82169050919050565b6000819050919050565b60006113d0826113bb565b91507fffffffffffffffffffffffffffffffffffffffffffffffffffffffffffffffff8214156114035761140261140e565b5b600182019050919050565b7f4e487b7100000000000000000000000000000000000000000000000000000000600052601160045260246000fd5b7f5072696365206c697374696e6720707269636500000000000000000000000000600082015250565b7f5072696365206d75737420626520657175616c20746f2074686520707269636560008201527f206f6620746865206974656d0000000000000000000000000000000000000000602082015250565b7f5265656e7472616e637947756172643a207265656e7472616e742063616c6c00600082015250565b7f70726963652063616e6e6f74206265207a65726f000000000000000000000000600082015250565b6115108161136b565b811461151b57600080fd5b50565b611527816113bb565b811461153257600080fd5b5056fea264697066735822122072d3ab243070504692e5cdaa5ad3ab07ee8e69d04e0423e5a03502097816a65964736f6c63430008040033",
  "linkReferences": {},
  "deployedLinkReferences": {}
}