{
  "_format": "hh-sol-artifact-1",
  "contractName": "topSuporte",
  "sourceName": "contracts/topsuporte.sol",
  "abi": [
    {
      "inputs": [],
      "stateMutability": "nonpayable",
      "type": "constructor"
    },
    {
      "anonymous": false,
      "inputs": [
        {
          "indexed": true,
          "internalType": "address",
          "name": "owner",
          "type": "address"
        },
        {
          "indexed": true,
          "internalType": "address",
          "name": "spender",
          "type": "address"
        },
        {
          "indexed": false,
          "internalType": "uint256",
          "name": "value",
          "type": "uint256"
        }
      ],
      "name": "Approval",
      "type": "event"
    },
    {
      "anonymous": false,
      "inputs": [
        {
          "indexed": true,
          "internalType": "address",
          "name": "previousOwner",
          "type": "address"
        },
        {
          "indexed": true,
          "internalType": "address",
          "name": "newOwner",
          "type": "address"
        }
      ],
      "name": "OwnershipTransferred",
      "type": "event"
    },
    {
      "anonymous": false,
      "inputs": [
        {
          "indexed": true,
          "internalType": "address",
          "name": "from",
          "type": "address"
        },
        {
          "indexed": true,
          "internalType": "address",
          "name": "to",
          "type": "address"
        },
        {
          "indexed": false,
          "internalType": "uint256",
          "name": "value",
          "type": "uint256"
        }
      ],
      "name": "Transfer",
      "type": "event"
    },
    {
      "inputs": [],
      "name": "admin",
      "outputs": [
        {
          "internalType": "address",
          "name": "",
          "type": "address"
        }
      ],
      "stateMutability": "view",
      "type": "function"
    },
    {
      "inputs": [
        {
          "internalType": "address",
          "name": "owner",
          "type": "address"
        },
        {
          "internalType": "address",
          "name": "spender",
          "type": "address"
        }
      ],
      "name": "allowance",
      "outputs": [
        {
          "internalType": "uint256",
          "name": "",
          "type": "uint256"
        }
      ],
      "stateMutability": "view",
      "type": "function"
    },
    {
      "inputs": [
        {
          "internalType": "address",
          "name": "spender",
          "type": "address"
        },
        {
          "internalType": "uint256",
          "name": "amount",
          "type": "uint256"
        }
      ],
      "name": "approve",
      "outputs": [
        {
          "internalType": "bool",
          "name": "",
          "type": "bool"
        }
      ],
      "stateMutability": "nonpayable",
      "type": "function"
    },
    {
      "inputs": [
        {
          "internalType": "address",
          "name": "account",
          "type": "address"
        }
      ],
      "name": "balanceOf",
      "outputs": [
        {
          "internalType": "uint256",
          "name": "",
          "type": "uint256"
        }
      ],
      "stateMutability": "view",
      "type": "function"
    },
    {
      "inputs": [
        {
          "internalType": "uint256",
          "name": "amount",
          "type": "uint256"
        }
      ],
      "name": "burn",
      "outputs": [],
      "stateMutability": "nonpayable",
      "type": "function"
    },
    {
      "inputs": [],
      "name": "decimals",
      "outputs": [
        {
          "internalType": "uint8",
          "name": "",
          "type": "uint8"
        }
      ],
      "stateMutability": "view",
      "type": "function"
    },
    {
      "inputs": [
        {
          "internalType": "address",
          "name": "spender",
          "type": "address"
        },
        {
          "internalType": "uint256",
          "name": "subtractedValue",
          "type": "uint256"
        }
      ],
      "name": "decreaseAllowance",
      "outputs": [
        {
          "internalType": "bool",
          "name": "",
          "type": "bool"
        }
      ],
      "stateMutability": "nonpayable",
      "type": "function"
    },
    {
      "inputs": [
        {
          "internalType": "address",
          "name": "spender",
          "type": "address"
        },
        {
          "internalType": "uint256",
          "name": "addedValue",
          "type": "uint256"
        }
      ],
      "name": "increaseAllowance",
      "outputs": [
        {
          "internalType": "bool",
          "name": "",
          "type": "bool"
        }
      ],
      "stateMutability": "nonpayable",
      "type": "function"
    },
    {
      "inputs": [
        {
          "internalType": "address",
          "name": "to",
          "type": "address"
        },
        {
          "internalType": "uint256",
          "name": "amount",
          "type": "uint256"
        }
      ],
      "name": "mint",
      "outputs": [],
      "stateMutability": "nonpayable",
      "type": "function"
    },
    {
      "inputs": [],
      "name": "name",
      "outputs": [
        {
          "internalType": "string",
          "name": "",
          "type": "string"
        }
      ],
      "stateMutability": "view",
      "type": "function"
    },
    {
      "inputs": [],
      "name": "owner",
      "outputs": [
        {
          "internalType": "address",
          "name": "",
          "type": "address"
        }
      ],
      "stateMutability": "view",
      "type": "function"
    },
    {
      "inputs": [],
      "name": "renounceOwnership",
      "outputs": [],
      "stateMutability": "nonpayable",
      "type": "function"
    },
    {
      "inputs": [],
      "name": "symbol",
      "outputs": [
        {
          "internalType": "string",
          "name": "",
          "type": "string"
        }
      ],
      "stateMutability": "view",
      "type": "function"
    },
    {
      "inputs": [],
      "name": "totalSupply",
      "outputs": [
        {
          "internalType": "uint256",
          "name": "",
          "type": "uint256"
        }
      ],
      "stateMutability": "view",
      "type": "function"
    },
    {
      "inputs": [
        {
          "internalType": "address",
          "name": "to",
          "type": "address"
        },
        {
          "internalType": "uint256",
          "name": "amount",
          "type": "uint256"
        }
      ],
      "name": "transfer",
      "outputs": [
        {
          "internalType": "bool",
          "name": "",
          "type": "bool"
        }
      ],
      "stateMutability": "nonpayable",
      "type": "function"
    },
    {
      "inputs": [
        {
          "internalType": "address",
          "name": "from",
          "type": "address"
        },
        {
          "internalType": "address",
          "name": "to",
          "type": "address"
        },
        {
          "internalType": "uint256",
          "name": "amount",
          "type": "uint256"
        }
      ],
      "name": "transferFrom",
      "outputs": [
        {
          "internalType": "bool",
          "name": "",
          "type": "bool"
        }
      ],
      "stateMutability": "nonpayable",
      "type": "function"
    },
    {
      "inputs": [
        {
          "internalType": "address",
          "name": "newOwner",
          "type": "address"
        }
      ],
      "name": "transferOwnership",
      "outputs": [],
      "stateMutability": "nonpayable",
      "type": "function"
    }
  ],
  "bytecode": "0x60806040523480156200001157600080fd5b506040518060400160405280600a81526020017f746f705375706f727465000000000000000000000000000000000000000000008152506040518060400160405280600381526020017f434758000000000000000000000000000000000000000000000000000000000081525081600390805190602001906200009692919062000386565b508060049080519060200190620000af92919062000386565b505050620000d2620000c66200013560201b60201c565b6200013d60201b60201c565b620000ee3369021e19e0c9bab24000006200020360201b60201c565b33600660006101000a81548173ffffffffffffffffffffffffffffffffffffffff021916908373ffffffffffffffffffffffffffffffffffffffff160217905550620005e2565b600033905090565b6000600560009054906101000a900473ffffffffffffffffffffffffffffffffffffffff16905081600560006101000a81548173ffffffffffffffffffffffffffffffffffffffff021916908373ffffffffffffffffffffffffffffffffffffffff1602179055508173ffffffffffffffffffffffffffffffffffffffff168173ffffffffffffffffffffffffffffffffffffffff167f8be0079c531659141344cd1fd0a4f28419497f9722a3daafe3b4186f6b6457e060405160405180910390a35050565b600073ffffffffffffffffffffffffffffffffffffffff168273ffffffffffffffffffffffffffffffffffffffff16141562000276576040517f08c379a00000000000000000000000000000000000000000000000000000000081526004016200026d906200046e565b60405180910390fd5b6200028a600083836200037c60201b60201c565b80600260008282546200029e9190620004be565b92505081905550806000808473ffffffffffffffffffffffffffffffffffffffff1673ffffffffffffffffffffffffffffffffffffffff1681526020019081526020016000206000828254620002f59190620004be565b925050819055508173ffffffffffffffffffffffffffffffffffffffff16600073ffffffffffffffffffffffffffffffffffffffff167fddf252ad1be2c89b69c2b068fc378daa952ba7f163c4a11628f55a4df523b3ef836040516200035c919062000490565b60405180910390a362000378600083836200038160201b60201c565b5050565b505050565b505050565b828054620003949062000525565b90600052602060002090601f016020900481019282620003b8576000855562000404565b82601f10620003d357805160ff191683800117855562000404565b8280016001018555821562000404579182015b8281111562000403578251825591602001919060010190620003e6565b5b50905062000413919062000417565b5090565b5b808211156200043257600081600090555060010162000418565b5090565b600062000445601f83620004ad565b91506200045282620005b9565b602082019050919050565b62000468816200051b565b82525050565b60006020820190508181036000830152620004898162000436565b9050919050565b6000602082019050620004a760008301846200045d565b92915050565b600082825260208201905092915050565b6000620004cb826200051b565b9150620004d8836200051b565b9250827fffffffffffffffffffffffffffffffffffffffffffffffffffffffffffffffff0382111562000510576200050f6200055b565b5b828201905092915050565b6000819050919050565b600060028204905060018216806200053e57607f821691505b602082108114156200055557620005546200058a565b5b50919050565b7f4e487b7100000000000000000000000000000000000000000000000000000000600052601160045260246000fd5b7f4e487b7100000000000000000000000000000000000000000000000000000000600052602260045260246000fd5b7f45524332303a206d696e7420746f20746865207a65726f206164647265737300600082015250565b611c6280620005f26000396000f3fe608060405234801561001057600080fd5b506004361061010b5760003560e01c806370a08231116100a2578063a457c2d711610071578063a457c2d7146102a8578063a9059cbb146102d8578063dd62ed3e14610308578063f2fde38b14610338578063f851a440146103545761010b565b806370a0823114610232578063715018a6146102625780638da5cb5b1461026c57806395d89b411461028a5761010b565b8063313ce567116100de578063313ce567146101ac57806339509351146101ca57806340c10f19146101fa57806342966c68146102165761010b565b806306fdde0314610110578063095ea7b31461012e57806318160ddd1461015e57806323b872dd1461017c575b600080fd5b610118610372565b6040516101259190611515565b60405180910390f35b61014860048036038101906101439190611261565b610404565b60405161015591906114fa565b60405180910390f35b610166610427565b60405161017391906116b7565b60405180910390f35b61019660048036038101906101919190611212565b610431565b6040516101a391906114fa565b60405180910390f35b6101b4610460565b6040516101c191906116d2565b60405180910390f35b6101e460048036038101906101df9190611261565b610469565b6040516101f191906114fa565b60405180910390f35b610214600480360381019061020f9190611261565b610513565b005b610230600480360381019061022b919061129d565b6105b1565b005b61024c600480360381019061024791906111ad565b6105be565b60405161025991906116b7565b60405180910390f35b61026a610606565b005b61027461068e565b60405161028191906114df565b60405180910390f35b6102926106b8565b60405161029f9190611515565b60405180910390f35b6102c260048036038101906102bd9190611261565b61074a565b6040516102cf91906114fa565b60405180910390f35b6102f260048036038101906102ed9190611261565b610834565b6040516102ff91906114fa565b60405180910390f35b610322600480360381019061031d91906111d6565b610857565b60405161032f91906116b7565b60405180910390f35b610352600480360381019061034d91906111ad565b6108de565b005b61035c6109d6565b60405161036991906114df565b60405180910390f35b6060600380546103819061181b565b80601f01602080910402602001604051908101604052809291908181526020018280546103ad9061181b565b80156103fa5780601f106103cf576101008083540402835291602001916103fa565b820191906000526020600020905b8154815290600101906020018083116103dd57829003601f168201915b5050505050905090565b60008061040f6109fc565b905061041c818585610a04565b600191505092915050565b6000600254905090565b60008061043c6109fc565b9050610449858285610bcf565b610454858585610c5b565b60019150509392505050565b60006012905090565b6000806104746109fc565b9050610508818585600160008673ffffffffffffffffffffffffffffffffffffffff1673ffffffffffffffffffffffffffffffffffffffff16815260200190815260200160002060008973ffffffffffffffffffffffffffffffffffffffff1673ffffffffffffffffffffffffffffffffffffffff168152602001908152602001600020546105039190611709565b610a04565b600191505092915050565b600660009054906101000a900473ffffffffffffffffffffffffffffffffffffffff1673ffffffffffffffffffffffffffffffffffffffff163373ffffffffffffffffffffffffffffffffffffffff16146105a3576040517f08c379a000000000000000000000000000000000000000000000000000000000815260040161059a90611557565b60405180910390fd5b6105ad8282610513565b5050565b6105bb3382610edc565b50565b60008060008373ffffffffffffffffffffffffffffffffffffffff1673ffffffffffffffffffffffffffffffffffffffff168152602001908152602001600020549050919050565b61060e6109fc565b73ffffffffffffffffffffffffffffffffffffffff1661062c61068e565b73ffffffffffffffffffffffffffffffffffffffff1614610682576040517f08c379a000000000000000000000000000000000000000000000000000000000815260040161067990611617565b60405180910390fd5b61068c60006110b3565b565b6000600560009054906101000a900473ffffffffffffffffffffffffffffffffffffffff16905090565b6060600480546106c79061181b565b80601f01602080910402602001604051908101604052809291908181526020018280546106f39061181b565b80156107405780601f1061071557610100808354040283529160200191610740565b820191906000526020600020905b81548152906001019060200180831161072357829003601f168201915b5050505050905090565b6000806107556109fc565b90506000600160008373ffffffffffffffffffffffffffffffffffffffff1673ffffffffffffffffffffffffffffffffffffffff16815260200190815260200160002060008673ffffffffffffffffffffffffffffffffffffffff1673ffffffffffffffffffffffffffffffffffffffff1681526020019081526020016000205490508381101561081b576040517f08c379a000000000000000000000000000000000000000000000000000000000815260040161081290611697565b60405180910390fd5b6108288286868403610a04565b60019250505092915050565b60008061083f6109fc565b905061084c818585610c5b565b600191505092915050565b6000600160008473ffffffffffffffffffffffffffffffffffffffff1673ffffffffffffffffffffffffffffffffffffffff16815260200190815260200160002060008373ffffffffffffffffffffffffffffffffffffffff1673ffffffffffffffffffffffffffffffffffffffff16815260200190815260200160002054905092915050565b6108e66109fc565b73ffffffffffffffffffffffffffffffffffffffff1661090461068e565b73ffffffffffffffffffffffffffffffffffffffff161461095a576040517f08c379a000000000000000000000000000000000000000000000000000000000815260040161095190611617565b60405180910390fd5b600073ffffffffffffffffffffffffffffffffffffffff168173ffffffffffffffffffffffffffffffffffffffff1614156109ca576040517f08c379a00000000000000000000000000000000000000000000000000000000081526004016109c190611597565b60405180910390fd5b6109d3816110b3565b50565b600660009054906101000a900473ffffffffffffffffffffffffffffffffffffffff1681565b600033905090565b600073ffffffffffffffffffffffffffffffffffffffff168373ffffffffffffffffffffffffffffffffffffffff161415610a74576040517f08c379a0000000000000000000000000000000000000000000000000000000008152600401610a6b90611677565b60405180910390fd5b600073ffffffffffffffffffffffffffffffffffffffff168273ffffffffffffffffffffffffffffffffffffffff161415610ae4576040517f08c379a0000000000000000000000000000000000000000000000000000000008152600401610adb906115b7565b60405180910390fd5b80600160008573ffffffffffffffffffffffffffffffffffffffff1673ffffffffffffffffffffffffffffffffffffffff16815260200190815260200160002060008473ffffffffffffffffffffffffffffffffffffffff1673ffffffffffffffffffffffffffffffffffffffff168152602001908152602001600020819055508173ffffffffffffffffffffffffffffffffffffffff168373ffffffffffffffffffffffffffffffffffffffff167f8c5be1e5ebec7d5bd14f71427d1e84f3dd0314c0f7b2291e5b200ac8c7c3b92583604051610bc291906116b7565b60405180910390a3505050565b6000610bdb8484610857565b90507fffffffffffffffffffffffffffffffffffffffffffffffffffffffffffffffff8114610c555781811015610c47576040517f08c379a0000000000000000000000000000000000000000000000000000000008152600401610c3e906115d7565b60405180910390fd5b610c548484848403610a04565b5b50505050565b600073ffffffffffffffffffffffffffffffffffffffff168373ffffffffffffffffffffffffffffffffffffffff161415610ccb576040517f08c379a0000000000000000000000000000000000000000000000000000000008152600401610cc290611657565b60405180910390fd5b600073ffffffffffffffffffffffffffffffffffffffff168273ffffffffffffffffffffffffffffffffffffffff161415610d3b576040517f08c379a0000000000000000000000000000000000000000000000000000000008152600401610d3290611537565b60405180910390fd5b610d46838383611179565b60008060008573ffffffffffffffffffffffffffffffffffffffff1673ffffffffffffffffffffffffffffffffffffffff16815260200190815260200160002054905081811015610dcc576040517f08c379a0000000000000000000000000000000000000000000000000000000008152600401610dc3906115f7565b60405180910390fd5b8181036000808673ffffffffffffffffffffffffffffffffffffffff1673ffffffffffffffffffffffffffffffffffffffff16815260200190815260200160002081905550816000808573ffffffffffffffffffffffffffffffffffffffff1673ffffffffffffffffffffffffffffffffffffffff1681526020019081526020016000206000828254610e5f9190611709565b925050819055508273ffffffffffffffffffffffffffffffffffffffff168473ffffffffffffffffffffffffffffffffffffffff167fddf252ad1be2c89b69c2b068fc378daa952ba7f163c4a11628f55a4df523b3ef84604051610ec391906116b7565b60405180910390a3610ed684848461117e565b50505050565b600073ffffffffffffffffffffffffffffffffffffffff168273ffffffffffffffffffffffffffffffffffffffff161415610f4c576040517f08c379a0000000000000000000000000000000000000000000000000000000008152600401610f4390611637565b60405180910390fd5b610f5882600083611179565b60008060008473ffffffffffffffffffffffffffffffffffffffff1673ffffffffffffffffffffffffffffffffffffffff16815260200190815260200160002054905081811015610fde576040517f08c379a0000000000000000000000000000000000000000000000000000000008152600401610fd590611577565b60405180910390fd5b8181036000808573ffffffffffffffffffffffffffffffffffffffff1673ffffffffffffffffffffffffffffffffffffffff168152602001908152602001600020819055508160026000828254611035919061175f565b92505081905550600073ffffffffffffffffffffffffffffffffffffffff168373ffffffffffffffffffffffffffffffffffffffff167fddf252ad1be2c89b69c2b068fc378daa952ba7f163c4a11628f55a4df523b3ef8460405161109a91906116b7565b60405180910390a36110ae8360008461117e565b505050565b6000600560009054906101000a900473ffffffffffffffffffffffffffffffffffffffff16905081600560006101000a81548173ffffffffffffffffffffffffffffffffffffffff021916908373ffffffffffffffffffffffffffffffffffffffff1602179055508173ffffffffffffffffffffffffffffffffffffffff168173ffffffffffffffffffffffffffffffffffffffff167f8be0079c531659141344cd1fd0a4f28419497f9722a3daafe3b4186f6b6457e060405160405180910390a35050565b505050565b505050565b60008135905061119281611bfe565b92915050565b6000813590506111a781611c15565b92915050565b6000602082840312156111bf57600080fd5b60006111cd84828501611183565b91505092915050565b600080604083850312156111e957600080fd5b60006111f785828601611183565b925050602061120885828601611183565b9150509250929050565b60008060006060848603121561122757600080fd5b600061123586828701611183565b935050602061124686828701611183565b925050604061125786828701611198565b9150509250925092565b6000806040838503121561127457600080fd5b600061128285828601611183565b925050602061129385828601611198565b9150509250929050565b6000602082840312156112af57600080fd5b60006112bd84828501611198565b91505092915050565b6112cf81611793565b82525050565b6112de816117a5565b82525050565b60006112ef826116ed565b6112f981856116f8565b93506113098185602086016117e8565b611312816118ab565b840191505092915050565b600061132a6023836116f8565b9150611335826118bc565b604082019050919050565b600061134d6013836116f8565b91506113588261190b565b602082019050919050565b60006113706022836116f8565b915061137b82611934565b604082019050919050565b60006113936026836116f8565b915061139e82611983565b604082019050919050565b60006113b66022836116f8565b91506113c1826119d2565b604082019050919050565b60006113d9601d836116f8565b91506113e482611a21565b602082019050919050565b60006113fc6026836116f8565b915061140782611a4a565b604082019050919050565b600061141f6020836116f8565b915061142a82611a99565b602082019050919050565b60006114426021836116f8565b915061144d82611ac2565b604082019050919050565b60006114656025836116f8565b915061147082611b11565b604082019050919050565b60006114886024836116f8565b915061149382611b60565b604082019050919050565b60006114ab6025836116f8565b91506114b682611baf565b604082019050919050565b6114ca816117d1565b82525050565b6114d9816117db565b82525050565b60006020820190506114f460008301846112c6565b92915050565b600060208201905061150f60008301846112d5565b92915050565b6000602082019050818103600083015261152f81846112e4565b905092915050565b600060208201905081810360008301526115508161131d565b9050919050565b6000602082019050818103600083015261157081611340565b9050919050565b6000602082019050818103600083015261159081611363565b9050919050565b600060208201905081810360008301526115b081611386565b9050919050565b600060208201905081810360008301526115d0816113a9565b9050919050565b600060208201905081810360008301526115f0816113cc565b9050919050565b60006020820190508181036000830152611610816113ef565b9050919050565b6000602082019050818103600083015261163081611412565b9050919050565b6000602082019050818103600083015261165081611435565b9050919050565b6000602082019050818103600083015261167081611458565b9050919050565b600060208201905081810360008301526116908161147b565b9050919050565b600060208201905081810360008301526116b08161149e565b9050919050565b60006020820190506116cc60008301846114c1565b92915050565b60006020820190506116e760008301846114d0565b92915050565b600081519050919050565b600082825260208201905092915050565b6000611714826117d1565b915061171f836117d1565b9250827fffffffffffffffffffffffffffffffffffffffffffffffffffffffffffffffff038211156117545761175361184d565b5b828201905092915050565b600061176a826117d1565b9150611775836117d1565b9250828210156117885761178761184d565b5b828203905092915050565b600061179e826117b1565b9050919050565b60008115159050919050565b600073ffffffffffffffffffffffffffffffffffffffff82169050919050565b6000819050919050565b600060ff82169050919050565b60005b838110156118065780820151818401526020810190506117eb565b83811115611815576000848401525b50505050565b6000600282049050600182168061183357607f821691505b602082108114156118475761184661187c565b5b50919050565b7f4e487b7100000000000000000000000000000000000000000000000000000000600052601160045260246000fd5b7f4e487b7100000000000000000000000000000000000000000000000000000000600052602260045260246000fd5b6000601f19601f8301169050919050565b7f45524332303a207472616e7366657220746f20746865207a65726f206164647260008201527f6573730000000000000000000000000000000000000000000000000000000000602082015250565b7f6f6e6c792061646d696e2063616e206d696e7400000000000000000000000000600082015250565b7f45524332303a206275726e20616d6f756e7420657863656564732062616c616e60008201527f6365000000000000000000000000000000000000000000000000000000000000602082015250565b7f4f776e61626c653a206e6577206f776e657220697320746865207a65726f206160008201527f6464726573730000000000000000000000000000000000000000000000000000602082015250565b7f45524332303a20617070726f766520746f20746865207a65726f20616464726560008201527f7373000000000000000000000000000000000000000000000000000000000000602082015250565b7f45524332303a20696e73756666696369656e7420616c6c6f77616e6365000000600082015250565b7f45524332303a207472616e7366657220616d6f756e742065786365656473206260008201527f616c616e63650000000000000000000000000000000000000000000000000000602082015250565b7f4f776e61626c653a2063616c6c6572206973206e6f7420746865206f776e6572600082015250565b7f45524332303a206275726e2066726f6d20746865207a65726f2061646472657360008201527f7300000000000000000000000000000000000000000000000000000000000000602082015250565b7f45524332303a207472616e736665722066726f6d20746865207a65726f20616460008201527f6472657373000000000000000000000000000000000000000000000000000000602082015250565b7f45524332303a20617070726f76652066726f6d20746865207a65726f2061646460008201527f7265737300000000000000000000000000000000000000000000000000000000602082015250565b7f45524332303a2064656372656173656420616c6c6f77616e63652062656c6f7760008201527f207a65726f000000000000000000000000000000000000000000000000000000602082015250565b611c0781611793565b8114611c1257600080fd5b50565b611c1e816117d1565b8114611c2957600080fd5b5056fea2646970667358221220ac558ed8a9439734ecd6409e89e3d64768d5d07719334d33fca7a18bedeb814f64736f6c63430008040033",
  "linkReferences": {},
  "deployedLinkReferences": {}
}